{
  "_format": "hh-sol-artifact-1",
  "contractName": "Counter",
  "sourceName": "contracts/Counter.sol",
  "abi": [
    {
      "anonymous": false,
      "inputs": [
        {
          "indexed": false,
          "internalType": "uint256",
          "name": "counter",
          "type": "uint256"
        }
      ],
      "name": "IncrementCounter",
      "type": "event"
    },
    {
      "inputs": [],
      "name": "count",
      "outputs": [],
      "stateMutability": "nonpayable",
      "type": "function"
    },
    {
      "inputs": [],
      "name": "getCounter",
      "outputs": [
        {
          "internalType": "uint256",
          "name": "",
          "type": "uint256"
        }
      ],
      "stateMutability": "view",
      "type": "function"
    }
  ],
  "bytecode": "0x6080604052348015600f57600080fd5b506103bb8061001f6000396000f3fe608060405234801561001057600080fd5b50600436106100365760003560e01c806306661abd1461003b5780638ada066e14610045575b600080fd5b610043610063565b005b61004d6100f6565b60405161005a9190610204565b60405180910390f35b6000808154809291906100759061024e565b91905055506100bb6040518060400160405280601081526020017f636f756e746572206973206e6f773a20000000000000000000000000000000008152506000546100ff565b7f4382a1e4a9e9231ff550d61caf84a106bd15d21a9b153c49ad2cafbc97a7d3506000546040516100ec9190610204565b60405180910390a1565b60008054905090565b6101978282604051602401610115929190610326565b6040516020818303038152906040527fb60e72cc000000000000000000000000000000000000000000000000000000007bffffffffffffffffffffffffffffffffffffffffffffffffffffffff19166020820180517bffffffffffffffffffffffffffffffffffffffffffffffffffffffff838183161783525050505061019b565b5050565b6101b2816101aa6101b56101d6565b63ffffffff16565b50565b60006a636f6e736f6c652e6c6f679050600080835160208501845afa505050565b6101e1819050919050565b6101e9610356565b565b6000819050919050565b6101fe816101eb565b82525050565b600060208201905061021960008301846101f5565b92915050565b7f4e487b7100000000000000000000000000000000000000000000000000000000600052601160045260246000fd5b6000610259826101eb565b91507fffffffffffffffffffffffffffffffffffffffffffffffffffffffffffffffff820361028b5761028a61021f565b5b600182019050919050565b600081519050919050565b600082825260208201905092915050565b60005b838110156102d05780820151818401526020810190506102b5565b60008484015250505050565b6000601f19601f8301169050919050565b60006102f882610296565b61030281856102a1565b93506103128185602086016102b2565b61031b816102dc565b840191505092915050565b6000604082019050818103600083015261034081856102ed565b905061034f60208301846101f5565b9392505050565b7f4e487b7100000000000000000000000000000000000000000000000000000000600052605160045260246000fdfea26469706673582212204d7f7ab6c0087a2dae0c2e1c4ff53748d0db1b19b3bb1ee01917726e3c37347064736f6c634300081c0033",
  "linkReferences": {},
  "deployedLinkReferences": {}
}